:020000040800F2
:1000000030080020890100084B1F0008391D000836
:10001000491F000859040008432800080000000098
:10002000000000000000000000000000ED260008B5
:100030004B06000800000000B5250008EF26000868
:10004000A3010008A3010008A3010008A301000800
:10005000A3010008A3010008A3010008A3010008F0
:10006000A3010008A3010008A30100081506000869
:10007000A3010008A3010008A3010008A3010008D0
:10008000A3010008A3010008A3010008A3010008C0
:10009000A3010008A3010008A3010008A3010008B0
:1000A000A3010008A3010008A3010008A3010008A0
:1000B000A3010008A3010008A3010008A301000890
:1000C000A3010008A3010008A3010008A301000880
:1000D000A3010008A3010008A3010008A301000870
:1000E000A3010008A3010008A301000800F002F822
:1000F00000F03AF80AA090E8000C82448344AAF188
:100100000107DA4501D100F02FF8AFF2090EBAE885
:100110000F0013F0010F18BFFB1A43F0010318473B
:100120003846000058460000103A24BF78C878C10D
:10013000FAD8520724BF30C830C144BF04680C60ED
:10014000704700000023002400250026103A28BF35
:1001500078C1FBD8520728BF30C148BF0B60704739
:100160001FB51FBD10B510BD00F09EF81146FFF77A
:10017000F7FF02F001FC00F0BCF803B4FFF7F2FF58
:1001800003BC00F0BFF80000094880470948004759
:10019000FEE7FEE7FEE7FEE7FEE7FEE7FEE7FEE737
:1001A000FEE7FEE704480549054A064B7047000094
:1001B0006B270008ED000008300200203008002006
:1001C000300400203004002010B5203AC0F00B802D
:1001D000B1E81850203AA0E81850B1E81850A0E84B
:1001E0001850BFF4F5AF5FEA027C24BFB1E81850A5
:1001F000A0E8185044BF18C918C0BDE810405FEA15
:10020000827C24BF51F8043B40F8043B08BF704790
:10021000D20728BF31F8023B48BF11F8012B28BF95
:1002200020F8023B48BF00F8012B70474FF0000256
:1002300000B5134694469646203922BFA0E80C50DC
:10024000A0E80C50B1F12001BFF4F7AF090728BFB7
:10025000A0E80C5048BF0CC05DF804EB890028BF33
:1002600040F8042B08BF704748BF20F8022B11F05C
:10027000804F18BF00F8012B7047704770477047D8
:1002800010B500F009F8006810BD10B5044600F084
:1002900003F8046010BD000000487047CC01002046
:1002A00000487047CC0100207546FFF7F9FFAE46C5
:1002B00005006946534620F00700854618B020B572
:1002C000FFF770FFBDE820404FF000064FF0000739
:1002D0004FF000084FF0000B21F00701AC46ACE8EE
:1002E000C009ACE8C009ACE8C009ACE8C0098D465B
:1002F000704710B50446AFF300802046BDE81040BB
:10030000FFF73BBF01491820ABBEFEE72600020005
:100310007047000070B5044600688168C943C9078A
:1003200017D1816821F00101816000F097FD054639
:100330000AE000BF00F092FD401B022804D92068AB
:100340008068C043C00706D020688068C043C007EB
:10035000F0D0002070BDA06A40F01000A062E06AFA
:1003600040F00100E062012070BD10B50146406A16
:10037000826A12F0500F05D0006A026BBDE810408F
:1003800008461047816A41F40071816201688968FA
:10039000C1F3424107290CD1017B51B9816A21F493
:1003A00080718162816AC90403D4816A41F00101CC
:1003B000816200F0D7F910BD10B5406A816A41F042
:1003C00040018162C16A41F00401C16200F0CCF9D0
:1003D00010BD10B5406A00F0C6F910BDF8B5002692
:1003E0000446009600688168C943C9072DD081681A
:1003F00041F001018160164816490068B0FBF1F038
:1004000000E0401E00900028FBD100F027FD0546CB
:1004100016E000BF00F022FD401B022810D9206822
:100420008068C043C0070BD0A06A40F01000A062F3
:10043000E06A40F00100E06284F824600120F8BD29
:1004400020688068C043C007E4D10020F8BD0000E8
:100450001400002040420F00FEE70000064810B5DF
:10046000008840BA03F09AFA0022044B03F03EF9E8
:10047000BDE8104003F04CB81C00002000002440F0
:100480002DE9F05F0027DFF89CA0DFF89C903D4647
:100490003E464FF0010B4FF40078AAF104047007B8
:1004A00003D116B16D1CEDB2002700F0D7FC2080FF
:1004B00000F0D4FC60804146484600F0C5FC20B9FD
:1004C00020886188801C8842F2D8232000F0BEF882
:1004D0004146484600F0B8FC1AF80520C7F107036A
:1004E0000BFA03F1D8B10A437F1C0AF80520FFB2CA
:1004F00000F0B4FCA4F8000000F0B0FC60804146BD
:10050000484600F0A1FC20B120886188801C884208
:10051000F2D8761CF6B2282EC1D3BDE8F09F8A43EC
:10052000E2E700001C000020000C01402DE9FF4123
:10053000274E0025022074154FF00108CDE9025026
:10054000CDE900482F466946304600F08DFB002279
:100550002146304600F07DFC40F2DC5000F076F899
:1005600001222146304600F074FC1E2000F06EF897
:10057000CDE90047CDE902876946304600F074FBBB
:10058000282000F063F82146304600F05DFC40B9B9
:10059000502000F05BF82146304600F055FC00B1D9
:1005A000012500F05BFC0B4FA7F8000000F056FCA3
:1005B00078802146304600F047FC20B138887988A1
:1005C000801C8842F2D804B02846BDE8F0810000C3
:1005D000000C0140180000200B4810B5408840BABC
:1005E000010406D5C0F30E0003F0D8F90022074B32
:1005F00003E003F0D3F90022054B03F077F8BDE8E0
:10060000104002F085BF00001C000020000024C044
:1006100000002440014800F005BA0000300100202D
:1006200030B590F840500124AC40C56B6C60046854
:1006300063604368102B036803D099600068C26050
:1006400030BD9A600068C16030BD70470449002227
:100650000B685A6209684A6A8242FCD370470000FC
:10066000C800002072B6FEE7F8B50024009490F8A8
:1006700024202546012A12D0012280F824204A682D
:100680001F23072A0DD20668776B521E02EB8202E7
:1006900093409F430B6893401F43776319E0022008
:1006A000F8BD06680D2A0AD2376BD21F02EB820210
:1006B00093409F430B6893401F43376309E0F76AF9
:1006C0000D3A02EB820293409F430B6893401F4315
:1006D000F7620A68072306680A2A0AD3F7680A3A03
:1006E00002EB420293409F438B6893401F43F760A5
:1006F00008E0376902EB420293409F438B689340C6
:100700001F4337610A68102A01D0112A20D1124BE9
:1007100002689A4217D193681B0219D4936843F474
:10072000000393600968102912D10C490C4A09682A
:10073000B1FBF2F101EB8101490000E0491E00919B
:100740000029FBD104E0816A41F02001816201248B
:1007500080F824502046F8BD0024014014000020F9
:1007600040420F0070477047704700002DE9F0418C
:100770004FF0000704003D467ED0A06A002628B94D
:10078000E66284F82460204600F07EF82046FFF7F9
:10079000C1FDA16AC90600D420B1A06A40F01000D2
:1007A000A06269E0A16A21F4885141F00201A162CE
:1007B0006268E169237B0A4347EA43010A43A1686F
:1007C0004FF48077B94209D0012907D05FF00001CA
:1007D00094F814C0BCF1010F02D00AE03946F7E7E3
:1007E000F3B1A36A43F02003A362E36A43F0010379
:1007F000E3622368D3F804C02CF4694C4CEA010C82
:10080000C3F804C021688B68DFF870C003EA0C03EA
:1008100013438B60A168B9420BD0012909D00CE0C9
:10082000DFF85CC0A3690CEB43330B4343F4006176
:10083000DFE7218A0D05A5F580152168CB6A23F431
:1008400070032B43CB62216889680E4B194091429B
:1008500008D1E662A16A21F0020141F00101A16222
:10086000BDE8F081A06A20F0020040F01000A06214
:10087000E06A40F00100E0620120F1E7FDF7E1FFEE
:1008800000E0FFFFFE0E1FFF70B586B00025064694
:10089000009501950295039500681A4988422ED16A
:1008A0001949886940F400708861886900F4007013
:1008B0000490886940F0040088618869694600F006
:1008C0000400049001200090032001900F4800F0E4
:1008D000CBF9104C0E48C4E900058020C4E9025051
:1008E00040002061800060612020C4E906052046A8
:1008F00000F042F908B1FFF7B5FE3462666206B057
:1009000070BD0000002401400010024000080140BA
:1009100008000240300100202DE9F04789460446D6
:100920003B4900683B4F0E1D9046884201D0B842BB
:1009300007D1306810F4702F03D001252846BDE898
:10094000F08794F8240001280CD0012084F82400BA
:100950002046FFF743FD05004FF0000004D084F867
:100960002400EBE70220EAE7A16A40F60162914326
:1009700041F48071A1622168B94218D1326812F441
:10098000702F14D0A16A41F48011A1623168490529
:1009900005D5A16A21F4005141F48051A162A16AF8
:1009A000C9040AD5E16A21F00601E16206E0A26A03
:1009B00022F48012A2624968E9E7E06284F8240028
:1009C000216A15488862216A1448C862216A14485D
:1009D000086321686FF0020008602068816841F4B4
:1009E00080718160216843464A464C31206A00F09C
:1009F000F1F820688168C1F342410729816803D07A
:100A000041F48011816099E741F4A001FAE7000008
:100A100000240140002801406B030008D3030008B4
:100A2000B90300082DE9F05FC16B0C6801680B6821
:100A3000D0F840C0042202FA0CF2494DDFF824A19C
:100A4000494E4A4FDFF828B1DFF828E122422CD086
:100A50005A072AD50A68920603D40A6822F00402CB
:100A60000A600168A94201D1042219E0514501D16F
:100A7000402215E0B14202D14FF4806210E0B94249
:100A800002D14FF480420BE0594502D14FF480224D
:100A900006E0714502D14FF4800201E04FF0806220
:100AA0002F4908394A60C16A3BE04FF0020808FA52
:100AB0000CF818EA040F4FF000094FF0010235D08E
:100AC0005FEA837832D50B689B0605D40B6823F068
:100AD0000A030B6080F821200168A94201D102229B
:100AE00019E0514501D1202215E0B14202D14FF465
:100AF000007210E0B94202D14FF400520BE05945A8
:100B000002D14FF4003206E0714502D14FF40012D9
:100B100001E04FF00072124908394A6080F82090D5
:100B2000816A00291AD0BDE8F05F0847082505FA58
:100B30000CF5254212D01B0710D50B6823F00E03CD
:100B40000B6090F84010C36B02FA01F159608263A8
:100B500080F8212080F82090016BE2E7BDE8F09F4B
:100B6000080002401C0002403000024044000240E5
:100B7000580002406C00024030B528B308C8134941
:100B800014221944B1FBF2F18900C1631049816359
:100B9000022141771A6843F6F0718A43D0E90014C4
:100BA0002143D0E902452C43214304692143446990
:100BB00021438469214311431960002141630122CB
:100BC00042770177084630BD012030BDF8FFFDBFF8
:100BD0000000024070B5044690F82000002501286E
:100BE0000CD0012084F8200094F821600020012E10
:100BF00006D084F820000225284670BD022070BD72
:100C0000022684F82160A0632068066826F00106A9
:100C100006602046FFF704FDE06A002820680168AE
:100C200002D041F00E0106E021F0040101602068CD
:100C3000016841F00A0101602068016841F001018A
:100C40000160D9E770B5044600F008F90546601C5C
:100C500002D004480078044400F000F9401BA04290
:100C6000FAD370BD080000202DE9F84FDFF8B891E5
:100C70000024A9F1040B23460F2709F1040AABF164
:100C8000040EC9E00125A5402A40AA427DD1674E45
:100C9000D1F804C0ACEB0608B44532D014DCBCF18A
:100CA000030F3AD009DCBCF1000F2AD0BCF1010FD0
:100CB0001CD0BCF1020F31D11DE0BCF1110F17D0D7
:100CC000BCF1120F2AD119E0B8F5881F19D006DC43
:100CD000B8F5803F15D0B8F5801F1FD111E0B8F5E9
:100CE000001F0ED0B8F5041F18D10AE0CB6815E03C
:100CF000CB681B1D12E0CB6808330FE0CB680C33C8
:100D00000CE08B682BB1012B4FF0080303D0456139
:100D100004E0042302E0056100E00023FF2A01D87B
:100D2000064601E000F104064FEA840501D9A5F169
:100D30002005D6F8008007FA05FC28EA0C0803FA1B
:100D400005F548EA0508C6F800804D68ED0062D553
:100D5000374DAE6946F00106AE61AD6924F0030679
:100D600005F001050095334D06EB050CDCF8085045
:100D7000A607360F07FA06F825EA0805DFF8B88057
:100D8000404503D14FF0000817E044E0DFF8AC80A5
:100D9000404502D14FF001080FE0DFF8A480404544
:100DA00002D14FF0020808E0DFF89880404502D1F8
:100DB0004FF0030801E04FF0040808FA06F848EA8B
:100DC0000508CCF808804D68D9F80060ED024D4662
:100DD00001D5164300E096432E604D68DAF80060B6
:100DE000AD02554601D5164300E096432E604D688E
:100DF000DBF80060AD035D4601D5164300E0964385
:100E00002E604D68DEF80060ED03754601D516438F
:100E100000E096432E60641C0D682A46E5407FF48E
:100E200031AFBDE8F88F0000080401400000111048
:100E3000001002400000014000080140000C014089
:100E400000100140001401408068084000D00120DB
:100E500070470AB1016170470904FBE701488068E7
:100E600070470000080000200248816802781144A1
:100E70008160704708000020074810B5016841F004
:100E800010010160032000F075F80F2000F006F853
:100E900000F024F8002010BD0020024070B50D4D78
:100EA00004464FF47A712878B1FBF0F00A490968DA
:100EB000B1FBF0F000F01FFE48B9102C07D2002261
:100EC0002146501E00F036F800206C6070BD0120F5
:100ED00070BD000008000020140000200C4808B578
:100EE000816941F001018161816901F00101009195
:100EF000C16941F08051C161C06900F0805000902B
:100F00000448416821F0E06141F00071416008BD92
:100F10000010024000000140002809DB00F01F0221
:100F2000012191404009800000F1E020C0F800114B
:100F300070470000F0B40E4B1B680C46C3F302234D
:100F4000C3F10705042D00D90425191D072901D275
:100F5000002300E0DB1E012606FA05F1491E2140B0
:100F600099409E40761E16403143F0BC01F07EBC95
:100F70000CED00E0064900F0070208684FF6FF0399
:100F8000184040EA0220034A1043086070470000FE
:100F90000CED00E00000FA052DE9F8430546007865
:100FA000354CC00754D0E0690026C00008D4E06981
:100FB00040F08050E061E069012600F08050009030
:100FC0002E480168C90512D40168804641F4807139
:100FD0000160FFF743FF074605E000BFFFF73EFF54
:100FE000C01B642823D8D8F80000C005F6D5206AB5
:100FF00010F4407021D0A98801F4407181421CD0C6
:10100000206A1F49012220F440700A6000220A6011
:101010002062C00711D0FFF721FF074641F2883850
:1010200008E000BFFFF71AFFC11B414502D90320AA
:10103000BDE8F883206A8007F4D5206A696820F447
:101040004070084320621EB1E06920F08050E061EA
:101050002878800705D56068A96820F440400843D7
:1010600060602878C00605D56068E96820F48000D3
:10107000084360600020DBE7001002400070004081
:10108000400442422DE9F0470F46050061D0434E2F
:10109000306800F00700B84209D2306820F007003D
:1010A00038433060306800F00700B84251D12868FA
:1010B0003B4C810712D5400703D5606840F4E060DF
:1010C00060602878000703D5606840F46050606075
:1010D0006068A96820F0F000084360602878C007C5
:1010E00028D06868012810D02168022810D089070C
:1010F00000292EDA616821F0030101436160FFF7E6
:10110000ADFE804641F288390DE021688903EFE7A2
:101110008901EDE7FFF7A2FEA0EB0801494502D9DE
:101120000320BDE8F0876068696800F00C00B0EB50
:10113000810FEFD1306800F00700B8420BD930685A
:1011400020F0070038433060306800F00700B842F4
:1011500001D00120E5E72878400705D56068E968F7
:1011600020F4E060084360602878000706D56068D6
:10117000296920F4605040EAC100606000F018F86E
:101180006168084AC1F30311515CC8400649086010
:1011900006480068FFF782FE0020C2E700200240F8
:1011A00000100240B8460008140000200C00002087
:1011B0000E4A51680E4801F00C03042B11D0082B85
:1011C0000FD10C48C1F38343C903C05C0AD55168F1
:1011D000084AC1F34041921E515C054A5043B0FB9E
:1011E000F1F0704704494843704700000010024086
:1011F00000127A00A846000800093D002DE9F84FCA
:10120000040070D02078C04DC00749D06868C0F392
:101210008100012807D06868C0F38100022809D145
:101220006868C00306D52868800339D5606800283F
:10123000E7D035E06068B0F5803F0BD010B1B0F575
:10124000A02F11D0286820F480302860286820F46E
:10125000802002E0286840F480302860606890B107
:10126000FFF7FCFD06460AE0286840F4802028606D
:10127000F0E700BFFFF7F2FD801B642873D82868F1
:101280008003F7D50CE0FFF7E9FD064605E000BF57
:10129000FFF7E4FD801B6428F0D828688003F7D4AA
:1012A00020789A4E80074FF001094FF0000839D599
:1012B000686810F00C0F07D06868C0F3810002283E
:1012C00009D16868C00306D42868800714D520694E
:1012D000012808D110E02069B0B1C6F80090FFF7EE
:1012E000BDFD074605E00AE1FFF7B8FDC01B022877
:1012F000C4D828688007F7D52868616920F0F8000D
:1013000040EAC10028600DE0C6F80080FFF7A6FDA6
:10131000074604E0FFF7A2FDC01B022823D8286877
:101320008007F7D4207800072CD57948A169D9B176
:10133000C0F80090FFF792FD074604E0FFF78EFD2E
:10134000C01B02280FD8686A8007F7D571484FF490
:10135000FA510068B0FBF1F0009000BF0098411E08
:101360000091FAD20EE080E0C0F80080FFF776FD31
:10137000074604E0FFF772FDC01B022875D8686AB3
:101380008007F7D42078400760D5E8690027C000BF
:1013900008D4E86940F08050E861E869012700F06E
:1013A000805000905C480168C90513D401688346E9
:1013B00041F480710160FFF751FD824606E000BFF5
:1013C000FFF74CFDA0EB0A0064284ED8DBF80000C4
:1013D000C005F5D5E06801280AD008B1052813D06A
:1013E000286A20F001002862286A20F0040002E048
:1013F000286A40F001002862E06841F2883B98B119
:10140000FFF72CFD82460BE0286A40F004002862BA
:10141000EEE700BFFFF722FDA0EB0A0159455AD8BD
:10142000286A8007F6D50CE0FFF718FD824605E034
:10143000FFF714FDA0EB0A0159454CD8286A800734
:10144000F6D41FB1E86920F08050E861E06988B304
:101450006968C1F38101022944D00228C6F860807E
:1014600004D0FFF7FBFC044638E034E0FFF7F6FC5D
:10147000074604E0FFF7F2FCC01B02282BD82868BF
:101480008001F7D4206AB0F5803F05D16868A16873
:1014900020F4003008436860D4E908010843696813
:1014A00021F4741108436860C6F86090FFF7D6FC19
:1014B000044606E025E000BFFFF7D0FC001B022831
:1014C00009D828688001F7D51BE000BFFFF7C6FCEC
:1014D000001B022802D90320BDE8F88F286880018C
:1014E000F4D40EE00128F7D06868226A00F4803155
:1014F000914204D1616A00F47010884201D0012049
:10150000EAE70020E8E70000001002400000424245
:1015100080044242140000200070004070B50400B6
:1015200009D0606A002540B125616561A56294F823
:10153000510040B10CE0012070BD6068B0F5827FC1
:10154000F4D0E561F2E784F85050204600F040F80E
:10155000022084F851002068016821F040010160F8
:10156000A088218900F4827001F404410843A18914
:1015700001F400610843217C01F002010843217D50
:1015800001F001010843218B01F400710843217F20
:1015900001F03801084394F8201001F0800108435D
:1015A000218D01F40051084321680860A0690421DD
:1015B00001EA1040216848602068C16921F4006197
:1015C000C1616565012084F85100002070BD0000F4
:1015D00030B585B00024009401940294039400680F
:1015E0001549884225D11548C16941F48041C1613E
:1015F000C16901F480410491816941F00801816170
:1016000080690F4D00F0080004904FF420400090D6
:10161000022001900320039069462846FFF724FB2F
:101620004FF48040CDE90004694628460294FFF754
:101630001BFB05B030BD0000003800400010024028
:10164000000C01402DE9F84F044690F851009846EF
:1016500016460F460025012801D0022598E0606853
:101660004FF0040BB0F5827F01D1A068F8B194F877
:101670005000012826D04FF0010984F85090FFF760
:10168000EDFB8246002F7FD0002E7DD084F851B034
:1016900000206065A763A687E6872063A086E086B2
:1016A00020646064A068B0F5004F0DD016E084F8A7
:1016B00051B013460A462046CDF8008000F024F9C8
:1016C000BDE8F88F0220FBE72068016821F04001A7
:1016D00001602068016821F4804101602068016890
:1016E000490603D4016841F040010160E068D8B1C7
:1016F0003BE020688168C90709D0007BA16B0870B6
:10170000A06B401CA063E08F401EE0870CE0FFF759
:10171000A5FBA0EB0A01414503D3B8F1FF3F03D07D
:1017200006E0B8F1000F03D0E08F0028E1D11FE000
:1017300003252BE020688168C90709D0C068A16B28
:101740000880A06B801CA063E08F401EE0870CE047
:10175000FFF784FBA0EB0A01414503D3B8F1FF3F3B
:1017600003D0E5E7B8F1000FE2D0E08F0028E1D127
:1017700052464146204600F01EFF08B12020606519
:10178000606D00E000E008B1012501E084F85190AF
:10179000002084F85000284692E72DE9F84F0446CF
:1017A00090F850000026984615468A4601280CD02D
:1017B000012784F85070FFF751FB814694F85100DF
:1017C000B346012804D002269AE00220BDE8F88F33
:1017D000BAF1000F6FD0002D6DD0032084F85100B6
:1017E000C4F854B0C4F830A0A586E586C4F838B073
:1017F000A4F83CB0A4F83EB0C4F844B0C4F840B07B
:10180000A068B0F5004F09D12068016821F04001BF
:1018100001602068016841F480410160206801682E
:10182000490603D4016841F040010160E068B0F569
:10183000006F606803D058B3012D29D049E008B18A
:10184000012D1FD1206B21680088C86006E0206848
:101850008168890709D5216B0988C160206B801CCC
:101860002063E08E401EE0860CE0FFF7F7FAA0EB65
:101870000901414503D3B8F1FF3F03D006E0B8F1B9
:10188000000F03D0E08E0028E1D125E0032635E0EB
:10189000206B21680078087306E02068816889075A
:1018A0000AD5216B09780173206B401C2063E08E00
:1018B000401EE0860DE01FE0FFF7D0FAA0EB090123
:1018C000414503D3B8F1FF3F03D0DFE7B8F1000F84
:1018D000DCD0E08E0028E0D14A464146204600F0A8
:1018E00098FE08B120206065A06818B92068C1681A
:1018F00080680090606D08B1012601E084F85170A5
:1019000084F850B0304661E72DE9FF4F81B00446BE
:1019100090F8500000260E9F1D4693464FF0010997
:1019200001280FD04FF0010A84F850A0FFF796FA73
:10193000804694F85100616801280DD0B1F5827F8E
:1019400008D103E0022005B0BDE8F08FA16809B915
:10195000042801D00226C9E00298002865D0BBF116
:10196000000FFBD0002DF9D094F85100042802D0CC
:10197000052084F8510000206065C4F838B0E58780
:10198000A58702992163E586A586206460642068A6
:101990000168490603D4016841F040010160E06834
:1019A000B0F5006F606803D0F0B3012D47D081E03F
:1019B00008B1012D3CD1206B21680088C860206BE4
:1019C000801C2063E08E401EE08631E02068816844
:1019D00089070FD5E18E69B1B9F1010F0AD1216BE9
:1019E0000988C160206B801C2063E08E401EE08669
:1019F0004FF0000920688168C9070CD0E18F51B110
:101A0000C068A16B0880A06B801CA063E08F401EA3
:101A1000E0874FF00109FFF721FAA0EB0800B84278
:101A200006D3781C04D001E009E05BE003265BE00C
:101A3000E08E0028CAD1E08F0028C7D140E0206B9B
:101A4000216800780873206B401C2063E08E401EE4
:101A5000E0862FE02068816889070FD5E18E69B1A3
:101A6000B9F1010F0AD1216B09780173206B401C79
:101A70002063E08E401EE0864FF0000920688168F8
:101A8000C9070CD0E18F51B1C068A16B0870A06B81
:101A9000401CA063E08F401EE0874FF00109FFF774
:101AA000DDF9A0EB0800B84202D3781C02D0BAE7F7
:101AB000002FB8D0E08E0028CCD1E08F0028C9D10B
:101AC00042463946204600F0A4FD18B101262020E8
:101AD00060650BE0A06818B92068C1688068009054
:101AE000606D08B1012601E084F851A0002084F85F
:101AF0005000304627E710B5401EB0F1807F01D37B
:101B0000012010BD4FF0E02460610F21601700F04C
:101B1000ADFE0020A06107202061002010BD000064
:101B200070B590F83C20012A26D0012480F83C4072
:101B3000022280F83D2003685A689D6822F07006F2
:101B40000A6832435A600D4B02689A4208D0B2F1DB
:101B5000804F05D00A4B9A4202D00A4B9A4204D1D8
:101B6000496825F080031943916080F83D400021C9
:101B700080F83C10084670BD022070BD002C01406A
:101B8000000400400008004010B5040003D094F8A1
:101B90003D0010B107E0012010BD002084F83C009A
:101BA000204600F01FF8022084F83D00211D206827
:101BB00000F0DCFD012084F8460084F83E0084F843
:101BC0003F0084F8400084F8410084F8420084F823
:101BD000430084F8440084F8450084F83D00002068
:101BE00010BD000008B500680649884208D10648C3
:101BF000C16941F00401C161C06900F004000090B6
:101C000008BD0000000800400010024090F83D10A0
:101C1000012901D001207047022180F83D100068A1
:101C20000B49884208D0B0F1804F05D0094988425D
:101C300002D00949884204D1816801F007010629D0
:101C400003D0016841F001010160002070470000ED
:101C5000002C0140000400400008004070B504461C
:101C600090F83C000025012817D0012684F83C603C
:101C7000022084F83D002068826822F0770222F476
:101C80007F4282600868502838D00DDC20284FD071
:101C900005DC90B3102811D14AE0022070BD302835
:101CA00046D040280AD13BE060282FD070280DD0C4
:101CB000B0F5805F03D0B0F5005F12D0012584F845
:101CC0003D60002084F83C00284670BDCB68D1E917
:101CD0000121206800F080FD2068816841F07701D3
:101CE00009E0CB68D1E90121206800F075FD20688A
:101CF000816841F480418160E1E719E0CA68496880
:101D0000206800F07BFD5021206806E0CA68496821
:101D1000206800F084FD6021206800F067FDCEE7B8
:101D2000CA684968206800F069FD40212068F4E72E
:101D3000226801461046F0E7FEE7000010B500F00B
:101D40001FF802F08FF9084A084B01F0CFFC084A4F
:101D5000084B00F0CBFE084A084B01F073FEBDE8CB
:101D6000104001F0D5BB0000B81E85EB5128534050
:101D70006D6442BFFB2606C08B3D0F4988265D403F
:101D80000A4810B5008802F0BDFA0146084802F082
:101D9000F7F9084902F0CEFA4FF07E5102F096FBB7
:101DA000BDE81040044902F0C5BA00000000002060
:101DB00000F07F450000A040000020413EB5002417
:101DC00011480094019402940E4984600160012539
:101DD0000573047505614FF460214460C161FEF72D
:101DE000C5FC08B172B6FEE707200094CDE90150AA
:101DF00069460548FEF738FC002801D072B6FEE7B8
:101E00003EBD0000002401404000002030B585B0F8
:101E1000002000900190029003901E48816941F0DB
:101E200020018161816901F020010491816941F003
:101E300004018161816901F004010491816941F02B
:101E400008018161816901F008010491816941F013
:101E5000100181618069104D00F010004FF40144C1
:101E60000490002221462846FEF7F3FF0094012447
:101E70000320CDE90240694601942846FEF7F4FEAE
:101E80006003CDE90004694604480294FEF7ECFEC5
:101E900005B030BD001002400008014000100140B4
:101EA0000E4810B50C4901604FF482714160002169
:101EB0008160C1604FF400720161C0E90512C16127
:101EC0000162416281620A21C162FFF727FB00289B
:101ED00001D072B6FEE710BD00380040700000204F
:101EE00010B586B00024174800940194029403941E
:101EF00004941349059401604721C0E901144FF689
:101F0000FF71C0E903148461FFF73EFE08B172B6A9
:101F1000FEE74FF48050009069460A48FFF79EFEA6
:101F200008B172B6FEE7049404A906480594FFF7C9
:101F3000F7FD002801D072B6FEE706B010BD000024
:101F400000080040C8000020FEE7FEE708B50020BA
:101F500000F068FA50208DF8000073208DF8010021
:101F60006423022269460348FFF717FC012000F0B2
:101F700059FA08BD740100200020AFF3008070B54D
:101F8000054600F061FA0446C0F380166EB115B143
:101F9000C4F3420028704021072000F0D5FAA006C3
:101FA00003D52021072000F0CFFA304670BD000095
:101FB0000FB460487CB50DF1700C58229CE870009D
:101FC00006A9FEF701F95C48C460C58006810120BE
:101FD00000F028FA002000F01BFA0520FEF732FE80
:101FE0000821002000F0B0FA3F21012000F0ACFAF7
:101FF0000321022000F0A8FA0321084600F0A4FA09
:102000000321042000F0A0FA0221052000F09CFA30
:102010000F21062000F098FA0E21072000F094FA14
:102020000021082000F090FA0021092000F08CFA2D
:10203000E7248DF803408DF802408DF801408DF8BB
:1020400004408DF80040052269460A2000F094FA09
:10205000C2208DF803008DF802008DF801008DF884
:1020600004008DF80000052269460B2000F084FA78
:10207000C3210C2000F068FAC4210D2000F064FA9E
:10208000C5210E2000F060FAC6210F2000F05CFA96
:102090008DF803408DF802408DF801408DF8044022
:1020A0008DF8004005226946102000F065FA0021F5
:1020B000112000F049FA0021122000F045FA002119
:1020C000132000F041FA0021142000F03DFA002115
:1020D000152000F039FA0021162000F035FAFFF73C
:1020E00035FF00211C2000F02FFA00211D2000F0F8
:1020F0002BFA00210F2000F0E7F8032000F0BEF8D3
:10210000022000F08DF8022000F06EF800F016F8C2
:10211000202000F0D1F800F05CF84C2000F078F8B6
:1021200000F08EF900F088F900F036F87CBC5DF81C
:1021300014FB0000740100202800002010B51D20B1
:1021400000F0A8F920F004011D2000F0FDF90021A5
:102150001C2000F0F9F902490020C87010BD0000F1
:1021600028000020602000F095B9000013B505227A
:1021700069460A2000F000FA05226946102000F0A6
:10218000FBF904488178202900D32021112000F098
:10219000DBF91CBD2800002010B5002000F07AF902
:1021A00020F00201BDE81040002000F0CDB910B5CC
:1021B00000F04EF9172000F06DF900F0010400F076
:1021C0003BF9602000F066F90CB1012010BD002041
:1021D00010BD7021072000F0B7B908B13F2100E021
:1021E0000021012000F0B0B910B50446002000F035
:1021F00051F920F00C011CB1012C06D041F00C016A
:10220000BDE81040002000F09FB941F00801F7E759
:102210007F2800D37F200146052000F095B90000FB
:102220002DE9F04107464FF00008062000F032F992
:10223000114D002620F028046E71022F0ED0012FC0
:1022400010D06E712146062000F07EF9062000F0C5
:1022500021F9A0420BD14FF0010809E06E7144F062
:102260002004EFE70120687144F00804EAE76E718A
:102270004046BDE8F08100002800002010B504466B
:10228000062000F007F920F00601032C0DD0022CE7
:1022900005D0012C06D054B1042C06D007E041F043
:1022A000040104E041F0020101E041F00601BDE853
:1022B0001040062000F048B9202800D32020014912
:1022C000887070472800002000F00F0060F31F1195
:1022D000042000F039B9000010B5002000F0DAF851
:1022E00040F00301002000F02FF90B49D1E904016F
:1022F000084305D00849052210310A2000F03CF9B6
:1023000000F09EF800F098F8012000F081F8BDE898
:1023100010400120FEF796BC2800002070B505464D
:102320000C46002000F074F8002000F0B3F820F014
:10233000010040F00201002000F006F9012000F049
:1023400067F80120FEF77EFC2146284600F0E0F801
:10235000012000F05DF80120FEF774FCBDE870403C
:10236000002000F055B810B5002000F051F800F042
:1023700067F8BDE8104000F05FB82DE9F041154660
:102380000E46044600F060F80746002020707021D9
:10239000072000F0D9F8C7F340102070C7F30010F1
:1023A0003070C7F380102870BDE8F0813EB50C4650
:1023B0000546FFF70EFF21462846FFF7AFFFFEF761
:1023C0004DFD0446012201A9082000F083F800F029
:1023D0003BF810F0300F04D1FEF740FD001B0A2837
:1023E000F0D30A4A02A96846FFF7C7FF074C9DF8D9
:1023F0000050207810B1FFF7B5FE60700020FFF7A5
:10240000BEFD00F01DF828463EBD0000280000205B
:10241000020003480189C06800D00122FEF719BDFF
:102420002800002002000348C188C06800D00122B3
:10243000FEF70FBD28000020FF21E22000F084B845
:10244000FF21E12000F080B8072000F023B8000051
:1024500038B505460D4884788C4200D90C460020DA
:10246000FFF7E0FF61208DF8000064230122694638
:102470000748FFF792F96423224629460448FFF7EC
:10248000E1F80120FFF7CEFF38BD00002800002052
:102490007401002038B504460020FFF7C3FF04F0A4
:1024A0001F008DF800006423012269460848FFF7E9
:1024B00074F96423012206480DF10101FFF7C2F807
:1024C0009DF801400120FFF7ADFF204638BD000018
:1024D00074010020F8B5044615460E460020FFF7AB
:1024E000A1FF04F01F008DF800006423012269465B
:1024F0000648FFF752F964232A4631460348FFF79E
:10250000A1F80120FFF78EFFF8BD00007401002044
:1025100038B505460C460020FFF784FFA0208DF853
:1025200000006423012269460648FFF736F9642358
:10253000224629460348FFF730F90120FFF772FFD2
:1025400038BD00007401002038B505460C46002057
:10255000FFF768FF45F020008DF800008DF801407E
:102560006423022269460348FFF717F90120FFF7A9
:1025700059FF38BD74010020F8B5044615460E46D3
:102580000020FFF74FFF44F020008DF80000642387
:10259000012269460648FFF700F964232A463146BE
:1025A0000348FFF7FAF80120FFF73CFFF8BD0000F1
:1025B000740100207047F8B5044640684FF48273F8
:1025C000984217D1A0684FF48065B0F5004F01D054
:1025D000A8420FD12068066826F0400606606068B1
:1025E000984207D1A068A84204D100920B4600226D
:1025F000012103E000920B4600228021204600F0DA
:1026000019F8002804D0606D40F0200060650320B8
:10261000F8BD38B50B46009204460022802100F038
:1026200009F8002804D0606D40F0200060650320A8
:1026300038BD00002DE9F8431E4691468846044601
:10264000089DFEF70BFC401B351AFEF707FC0746FA
:1026500025480068C0F3CB30684338E0701C37D0A1
:10266000FEF7FCFBC01BA84203D215B1009860B373
:102670002CE02068416821F0E00141606068B0F51D
:10268000827F0BD1A068B0F5004F02D0B0F5806F0B
:1026900004D12068016821F040010160A06AB0F512
:1026A000005F09D12068016821F4005101602068B1
:1026B000016841F400510160012084F851000020BC
:1026C00084F850000320BDE8F8830025401E0090E8
:1026D0002068816838EA010004D000214945BDD155
:1026E0000020F0E70121F9E7140000207047FEF711
:1026F000BBBB30B593B028216846FDF797FD142188
:102700000AA8FDF793FD002501200F95109511955E
:10271000010412958DE8230004904FF4E010CDE9F8
:102720000810022407946846FEF768FD08B172B6E7
:10273000FEE70AA90F2081E831004FF48060CDE95F
:102740000D0502210AA8FEF79DFC08B172B6FEE74E
:102750004FF4004011900F940FA8FEF71DFC0028C5
:1027600001D072B6FEE713B030BD7047F0B5026815
:10277000164B174C174D4FF08047984205D0B84282
:1027800003D0A04201D0A84203D122F070064A68CB
:102790003243984205D0B84203D0A04201D0A842AB
:1027A00003D122F44074CA6822434C6922F08002AB
:1027B000224302608A68C2620A688262984201D13A
:1027C0000969016301214161F0BD0000002C014055
:1027D000000400400008004010B5846842EA03226B
:1027E00024F47F440A432243826010BD826822F0B1
:1027F00070020A4342F007018160704710B5036A16
:10280000046A24F001040462846924F0F00444EAB8
:10281000021423F00A020A438461026210BD10B55B
:10282000036A046A24F010040462846923F0A0039C
:1028300024F4704444EA023243EA011182610162E5
:1028400010BDFEE7490050EAC12018BF04204A0D20
:1028500018BF40F0010040F2FF72B2EB515F08BFB9
:1028600040F00200012808BF052070470907090E43
:10287000002804DB00F1E02080F80014704700F02D
:102880000F0000F1E02080F8141D70472DE9F041A1
:102890004F1E00EBC7010446D1E9000115461E4654
:1028A00037F006020DD02A46334601F0CBF87F1EE2
:1028B00004EBC703D3E9002300F05CFE37F0060207
:1028C000F1D1022F25D0042F13D0062F18BFBDE859
:1028D000F0812A46334601F0B5F8D4E90A2300F026
:1028E00049FE2A46334601F0ADF8D4E9082300F04A
:1028F00041FE2A46334601F0A5F8D4E9062300F04C
:1029000039FE2A46334601F09DF8D4E9042300F04D
:1029100031FE2A46334601F095F8D4E9022300F04F
:1029200029FE2A46334601F08DF8D4E90023BDE89C
:10293000F04100F01FBE000000221346104601497E
:1029400000F0D4BE0000F03F00F014BE0022134699
:102950001046114600F0CABE40F2013200204FF08E
:10296000E04101F05ABE0000024A0020110701F0C8
:1029700054BE000001FDFFFFACB0FEF77DFAFFF78B
:10298000B8FEFFF743FA5348416941F00101416144
:102990004069002200F00100009011460B20FEF774
:1029A000C9FA0B20FEF7B8FAFFF708FAFFF798FA12
:1029B000FFF776FA4848FFF729F9474801224749C7
:1029C0008838FDF7A9FF44493622583915A8FDF784
:1029D000FBFB414C583CE08EADF88A00A4F130007E
:1029E000816E2391B0F86C00ADF89000E08FADF8E7
:1029F0009200112204F1400125A8FDF7E5FB94F8AF
:102A000051008DF8A500606D2A904FF400423448C3
:102A100012ABD11183E80700482219A96846FDF7D7
:102A2000D3FB0DF1540C9CE80F00FFF7C1FA2D48C1
:102A30001121FFF79BFB0220FFF720FC0020FFF78E
:102A4000EFFB3420FFF7E4FB0120FFF7C6FBFFF7A5
:102A500043FCFEF703FA214C40F2EE254FF40056FA
:102A6000214F6060FEF7FAF96168401AA8421BD94D
:102A700042208DF80000FDF759FD38B1FDF700FD4B
:102A8000FDF7AAFD0190FDF7E9FC0290FFF756F96A
:102A90000390FFF768FC20216846FFF787FCFFF7EB
:102AA0001BFCFEF7DBF96060FFF766FA0028D9D05F
:102AB000094820214830FFF77AFB07484830007862
:102AC000C00705D0002231463846FEF7C2F9C9E7F3
:102AD0000122F8E700100240C8000020000000209A
:102AE0000008014011443322001001402DE9F04D4F
:102AF0001D460C4698B0174621F0004123F00043D4
:102B0000002814BF4FF0010C4FF0000C0CEB440CEC
:102B1000FE4A0CEB02064FEA620C66452BD33E00E0
:102B200018BF012606EB45061644F94A964222D301
:102B3000F84A53EA070C02D0944205D148B918B0BC
:102B400000201146BDE8F08D002808BF4FF0000CB2
:102B500001D04FF0010C0CEB440212F5001F0AD813
:102B6000002F14BF4FF0010C4FF0000C0CEB45028E
:102B700012F5001F07D918B03A462B462146BDE88A
:102B8000F04DFFF7E1BE0022DFF88CA3002CB8BFA8
:102B9000534526DADFF884C36345A8BF022220DA52
:102BA000DFF870C39C451CDCDFF874C30CEB235CBE
:102BB000BCF1140F08DDCCF1340627FA06FC0CFA40
:102BC00006F6BE420DD108E05FB9CCF1140623FA37
:102BD00006FC0CFA06F69E4203D10CF00102C2F18B
:102BE000020251EA000C19D1002D17DA002C18BF8F
:102BF000022A01D0012A07D00220FDF746FB18B0B7
:102C0000BDE8F04DFFF798BE0220FDF73EFBFFF751
:102C100093FE18B081F00041BDE8F08DB7F1000CD3
:102C20006CD1534525D104F1804212F5801201BFC9
:102C300000280020B74918B008BFBDE8F08DB5489E
:102C4000884207DC002DA1BF6046294618B0BDE8C8
:102C5000F08D07E0281E05DA80F0004118B06046CC
:102C6000BDE8F08DAF497944D1E9000118B0BDE865
:102C7000F08DDFF8A0C2634525D1002D1FDA19B110
:102C8000514512D1D8B909E0002840F0EC82A24A9F
:102C9000214618B062F31E01BDE8F08D00202146E8
:102CA00018B060F31E01BDE8F08D08DA18B02346B5
:102CB000BDE8F04D02460020614600F017BD18B097
:102CC0002146BDE8F08D514518DAB5F1804F0DD0A1
:102CD000A5F1005CBCF1FF5C10D1B4F1000C0DDB80
:102CE00018B06146BDE8F04D00F0ECBB234618B0CB
:102CF0000246BDE8F04D194600F0A4BE060024F0DF
:102D0000004C3BD1D9B1514533D1002C06DD002D0B
:102D1000A1BF0020514618B0BDE8F08D002C01DDA8
:102D2000002D1BDB002C13DA002D11DB012A4FF0E4
:102D3000000014BF78497C4918B0BDE8F08D022A24
:102D400018BF002C0AD0012A08D1002C06DA0AE0AC
:102D5000002CB8BF002D11DA012A04D0002018B0D1
:102D60000146BDE8F08D18B000204FF00041BDE8ED
:102D7000F08DA1F14050B0F17F601AD0012000EB3E
:102D8000E47050EA020421D0624C521E4FF0000B56
:102D9000104304BF4FF0000B644C654883427CDD58
:102DA000644A654893421FDD884217DB002D25DB0E
:102DB00037E0002C00DA4AB1022A0CBF01204FF0A4
:102DC000FF3018B0BDE8F04D00F0E8BD0120FDF780
:102DD0005CFA18B0BDE8F04DFFF7B8BD4D4A8A4225
:102DE00002DC002D0ADC1CE0814202DA002D18DA38
:102DF00004E0484B994220DD002D12DD0220FDF752
:102E000044FAFFF7A9FD05460E46002253465846F0
:102E1000214600F017FE18B066F31E012846BDE8F3
:102E2000F08D0220FDF731FAFFF79EFD0A4621469C
:102E300018B062F31E01BDE8F08D002230466146F5
:102E400001F026F880460E466FF0010201F0E5FB26
:102E50004FF05532394B00F029FF4246334600F01F
:102E6000F1FD0022364B00F021FF824642463346F8
:102E700004911046194600F0E5FD5246049B00F00F
:102E8000E1FD8A4600904FF0C0422E4B404631464D
:102E900000F0D8FD2C4A2B4B00E027E0CDE90601DD
:102EA0005146009800F0CEFD82460191274A284BFA
:102EB0004046314600F0C6FD5246019B00F0E8FF57
:102EC00082460B4602460591DDE9060100F052FB01
:102ED000DDE9062300268846304600F0D9FF524639
:102EE000059B00F0E3FE024600F07EB90020B1F53C
:102EF000801F07DA35223046614601F08EFB064618
:102F00006FF0340000EB215024E00000FFFF1F00B1
:102F1000FFFF0F000000F03F0000F07F0000404383
:102F200001FCFFFFE61A00000000F0FF0000F0BF08
:102F30000000E0410000F043FFFFEF3F5555D53F53
:102F40000000E03F4715F73FFE822B6544DF5DF848
:102F50000BAE543EA0F2FF300190C1F3130040F0DD
:102F60007F6141F040510291FE498842D8BF002064
:102F700004DDFD498142C8BF012001DD0D9008E05C
:102F800000200D900198401C01900298A0F580103F
:102F900002900299F54878440B910D9900EBC1001D
:102FA000D0E900230F9330460A920B9900F070FF8E
:102FB000CDE90601DDE90A2130460F9B00F0DAFA7F
:102FC00002460B460020EA4900F090FB05910246BC
:102FD0000B460090DDE9060100F034FD1490E54851
:102FE0008A464FF0000878440299006812904FF02A
:102FF000005040EA61010D980F9B01EB804000F505
:10300000002109910A9A129800F042FF32460B9B68
:1030100000F04CFE4246534600F014FD0646029175
:1030200040465146099B129A00F00CFDDDE906234B
:1030300000F03CFE3246029B00F02AFF059B009AFE
:1030400000F000FD0091149A049053461046194672
:1030500000F0F8FC06460246C7480B4602910621DE
:103060007844FFF713FCCDE90510029B3246104669
:10307000194600F0E7FCDDE9053200F0E3FC0591BC
:103080000646534640461946149A00F073FA009BD0
:10309000049A00F0D7FC3246059B00F06BFACDE9AC
:1030A0000510424653461046194600F0CBFC00225C
:1030B000B24B02910A9000F05DFADDE9053200F0B2
:1030C00059FA0E464246AD4B404600F0E1FE029BE7
:1030D0000A9A00F0DDFEDDE9053200F0E7FD424628
:1030E00002910A9033461046514600F0ABFCCDE900
:1030F00006015346149A02990A9800F0A3FC8A46E6
:103100000290334642460099049800F09BFC5346D7
:10311000029A00F02FFA82460B4602460591DDE93D
:10312000060100F027FADDE906230020884606465E
:1031300000F0AEFE5246059B00F0B8FD82460991B4
:103140004FF060428E4B3046414600F07BFC0490CD
:1031500006918C4A8A4B5046099900F073FC8246CE
:103160000291894A894B3046414600F06BFC524639
:10317000029B00F0FFF9864B7B440D9A03EBC203E0
:10318000D3E9002300F0F6F90E900791019800F0C2
:1031900005FC0591DDE9061382460E9A049800F0BD
:1031A000E9F97C4A7A440D9B02EBC303D3E900237F
:1031B0000093029200F0DEF95246059B00F0DAF926
:1031C0000026884652463046059B00F061FE009B73
:1031D000029A00F05DFE069B049A00F059FE079BE0
:1031E0000E9A00F063FD024600200B46029038461E
:1031F000294600F027FC824601912B4638461946A5
:10320000029A00F045FE3246434600F01BFC52464F
:10321000019B00F0AFF907468A46324643462946ED
:10322000029800F00FFC05460E463A46534600F061
:10323000A1F9594A8846914221DBA8EB020353EADF
:10324000000210D12A46334600F022FECDE90401E7
:10325000524A534B3846514600F08CF9DDE90423BD
:1032600000F0EEFC21D20220FDF70FF8FFF774FB0F
:103270000A46214618B062F31E01BDE8F08D494BA5
:1032800028F000429A4210D3474A08EB020353EA5F
:1032900000027FF4C6AD2A46334600F0F9FD3A46F7
:1032A000534600F0CDFC7FF6BCAD0022019228F021
:1032B00000403E493E4A01EB2051824223DA481C3D
:1032C0004FF4801121FA00F040443A4AC0F30A5109
:1032D0007A44394BA1F2FF31CB4020EA0303C0F31B
:1032E000130040F48010C1F11401C840126801902D
:1032F000B8F1000FBCBF404201902846314600F0B3
:10330000C7FD05460E462A4633463846514600F06C
:1033100031F94FF000084246284B4046059100F035
:1033200091FBCDE90601264A264B4046059900F05F
:1033300089FB009102902A4633464046059900F0E9
:10334000A7FD3A46534600F0B1FC1F4A1F4B00F060
:1033500079FB009B029A00F00DF907468846024669
:103360000B4635E08E9803007AB60B002E1700004E
:103370000000F03F661700009416000000000840AF
:1033800009C7EE3FFD033ADCF5015B14E02F3EBEBA
:103390006C1500003015000000009040FE822B6587
:1033A0004715973C00CC904000346F3F01FCFFFF75
:1033B0000000E03F7C140000FFFF0F00432EE63FBB
:1033C000396CA80C615C20BEEF39FAFE422EE63F54
:1033D000DDE9060100F0CEF8DDE9062305460E46DC
:1033E00000F056FD3A46434600F060FC0F462A4680
:1033F000334600901046194600F024FB82460246F0
:103400002E4888460B4605217844FFF73FFA52467E
:10341000434600F017FB2A46334600F047FC80463F
:103420008A463B4628463146009A00F00BFB3B4655
:10343000009A00F09FF80691009000224FF0804320
:103440004046514600F024FD0F460C90424653463C
:103450002846314600F0F6FA3B460C9A00F046F951
:10346000069B009A00F014FD2A46334600F010FD3A
:103470000022134B00F01AFC054601980E4601EBA2
:1034800000510815002810DC28463146019A01F049
:10349000C4F8FFF7D7F9042808BFFFF765FA2846F4
:1034A0003146019A01F0B9F805460B4618B02A4694
:1034B00058462146BDE8F04D00F0C4BA1C13000088
:1034C0000000F03F2DE9F04106460F4600F0FAFB00
:1034D000041E0D4618BF0120284320F00040C0F113
:1034E0007F6000F1E040C00F0ED0301C18BF0120FB
:1034F000384320F00040C0F17F6000F1E040C00F91
:1035000004BF0120FCF7C1FE20462946BDE8F0813A
:1035100021F00042A2F16052B2F5801F01F0004399
:1035200028BFD2F17F6C0BD95FEA001C43EAC202CC
:1035300042EB507018BF704728BF20F00100704761
:10354000B2F5801FBCBF184670474FEA410C1CF50E
:10355000001F02D2084600F0B4BF70B500F01CFB9B
:1035600000000089FFF7F6BF4FF00040A0F5800093
:103570007047000010B591EA030F48BF83F0004385
:1035800000F18E84841A71EB030C05D2121943EBFF
:103590000C03001B61EB0C01DFF824E14FEA11542E
:1035A000A4EB135C1EEA430F18BF9EEA445F73D07E
:1035B00023EA0E03DCF1200E21EA045143F48013C8
:1035C00032D322FA0CFE10EB0E0023FA0CFE41EB74
:1035D0000E01CCF1200E03FA0EFE10EB0E0051F19D
:1035E0000001B1F5801FCCF1200E32D201EB045165
:1035F00012FA0EF2BDE8104058BF7047401C38BFA9
:103600005FEA420218BF7047002814BF20F0010093
:1036100041F100014FEA410313F5001F38BF704725
:10362000A1F1C04100F006BB012A43EB0302ACF15B
:10363000200CDCF11F0E32BF4FF0000E23FA0CF30A
:1036400010EB030041EB0451B4EB115FD0D0A1EBC0
:10365000045101F5801149085FEA300001EB045183
:103660000ED350F1000038BF12FA0EFE08D1BDE8AB
:103670001040C9E7401C38BF5FEA4202CAD1C3E725
:10368000BDE810404FEA410313F5001F38BF7047F3
:10369000A1F1C04100F0CEBA9EEA445F08D011EA21
:1036A0005E0FBDE8104004BF01F0004100207047EC
:1036B000BDE8104070B500F06FFA00BF64FBBE3E7D
:1036C0000000E0FF02494FF0000000F074BF00BFAF
:1036D0000000F87F491058BFC1F140415B1058BF4E
:1036E000C3F140438B42EFF3008070472DE9C041A6
:1036F00030B4DFF8A0C23CEA111418BF3CEA13143E
:1037000000F0EC8081EA03051CEA111444EAD57448
:1037100018BF1CEA131500F0C780A4EB05044FF096
:10372000004545EAC12145EAC32341EA505143EA35
:10373000525304F17F74994204F500344FEAC020DB
:103740004FEAC22208BF904200F09C804FEA136506
:103750000FF24016765D4FEA134506FB05F7C7F1F9
:10376000807706FB07F74FEAD737A7FB0368764257
:10377000C8F58038A7FB06CE38BFA8F1010807FBC3
:1037800008E64FF0000EA6FB028CE6FB03CEDCF150
:10379000000CCEF1004E38BFAEF1010EA6FB0C5866
:1037A0004FF000074FF00005E6FB0E87A1FB08C6AF
:1037B000A0FB07CE16EB0E0645F10005E1FB076501
:1037C00015F1E04E7EBFA4F580345FEA46066D41F8
:1037D00016F1800745F100054FEA17274FEA066604
:1037E00047EA0567A6F1DE46B6F1805F4FEA152588
:1037F0001FD9384624F0010C05EBC471BCF1FE6FF3
:1038000001EB0C1102D8F0BCBDE8008124425CBF82
:1038100001F5801E9EEAC47F02D4F0BCBDE80081A1
:10382000244238D4F0BCA1F1C041BDE8004100F011
:1038300001BA4FEAD22242EA43524FEAD323A7FB0E
:1038400002864FEAD02040EA415007FB03661EEA99
:103850000E0F4FEAD12105FB026658BFA6EB0056BA
:10386000B6EB00564FEA520E4EEAC37E18EB0E0E30
:1038700056EB530EBDD518EB02085E417F1C55F187
:103880000005B6E74FF480154FF000074FF0000633
:103890004FF00008ADE7F0BC4FF0000001F1C0416F
:1038A00001F00041BDE8008111EA0C1F0CEA13157C
:1038B00000D00CE013EA0C1F00F025804FF0000050
:1038C000F0BC81EA030101F00041BDE80081F0BCD9
:1038D000BDE8004181EA030100F0ACB9F0BCBDE8ED
:1038E000004170B500F058F9097EFC3E00F007B8C1
:1038F00081EA03014FF0000001F00041704781EAC6
:10390000030100F097B9F0BCBDE800414FF00000A2
:1039100021497047FFFDFBF9F7F5F4F2F0EEEDEB0E
:10392000E9E8E6E4E3E1E0DEDDDBDAD8D7D5D4D3BD
:10393000D1D0CFCDCCCBCAC8C7C6C5C4C2C1C0BF09
:10394000BEBDBCBBBAB9B8B7B6B5B4B3B2B1B0AF0F
:10395000AEADACABAAA9A8A8A7A6A5A4A3A3A2A1F3
:10396000A09F9F9E9D9C9C9B9A99999897979695AE
:1039700095949393929191908F8F8E8E8D8C8C8B4A
:103980008B8A8989888887878685858484838382D2
:10399000828181800000FF070000F87F10F0004264
:1039A00048BF4042B0FA80F310FA03F10AD0C3F1E5
:1039B0001D0303F580634FEA415002EB035202EB13
:1039C000D12170474FF000007047000051EA030C0E
:1039D00017D41CF5801F58BFBCF5801F00F106806E
:1039E000994218BF704708BF9042704707D711F53A
:1039F000801F58BF13F5801F19D499427047894220
:103A000070471CF5801F08D5BCF5801FF7D58B4289
:103A100018BF704708BF824270474FF4001C1CEB70
:103A2000410F38BF1CEB430F01D28B42704770B57A
:103A300000F0B2F8922449004FF000514FF080534B
:103A4000FFF748BEDFF848C170B51CEA111E1EBF63
:103A50001CEA13159EEA0C0F95EA0C0F00F06F801C
:103A600081EA030423EA4C134EEAD47E21EA4C1186
:103A700041F4801143F48013AE44A1FB024CA0FB3F
:103A80000365AEF17F7E361955EB0C05A1FB034CA7
:103A90004CF10003A0FB021C16EB0C06654153F130
:103AA0000003094218BF46F0010613F4007F0BD152
:103AB0004FEA03314FEA0530340341EA155140EA39
:103AC00016506FF003020AE04FEAC3214FEAC52007
:103AD000F40241EA555140EA56506FF0020202EBFF
:103AE0002E4201EB025585EACE710AD05FEA440C02
:103AF00018BF24F0004450F1000041F1000120EA19
:103B0000D47040F2FE7C624500D270BDA84214BF62
:103B10004FF080444FF04044002E08BF0024BEF117
:103B2000806FA8BFA1F1C041BDE8704080F28280E3
:103B30004FF0000001F1C04101F0004170479EEAE2
:103B40000C0F0CEA131518BF95EA0C0F06D04FF0B6
:103B5000000081EA030E0EF0004170BD00F01CF879
:103B60008900013E00F007B800F009B84FEA430CA5
:103B70005FEA5C5C08D081EA030100F05BB84FEAC1
:103B8000410C5FEA5C5CF6D14FF0000001497047E0
:103B90000000FF070000F87F0EF1020E2EF0030E6A
:103BA0005EF8046B364205D4012A43EB030515F594
:103BB000001F12D8012841EB010C1CF5001F0CD886
:103BC0000ED14FEAD17C15F5001F0CEB4C0C0CF11B
:103BD000020C08BF4CEBD37C04E04FF0080C01E072
:103BE0004FEAD37C0CEB4C0526FA05F606F00706E7
:103BF000B6F1040C06D20EEB860CBDE870404CF01A
:103C0000010C6047DFE80CF0090B02024FF00041A5
:103C10004FF00000A1F5002170BD194610460128A3
:103C200051EB010418BFD4F5001484BF002001F04B
:103C3000004170BD0808A0F500114FEA310170473E
:103C400053EA010C17D41CF5801F58BFBCF5801F28
:103C500000F106808B4218BF704708BF8242704750
:103C600007D713F5801F58BF11F5801F19D48B4259
:103C700070479B4270471CF5801F08D5BCF5801F1C
:103C8000F7D5994218BF704708BF904270474FF46C
:103C9000001C1CEB430F38BF1CEB410F01D29942B3
:103CA00070470FB40CBC03BCFFF7C1BE91EA030F11
:103CB00010B581F000413FF565AC83F0004300F0A2
:103CC000EFB800002DE9F04101F5801CBCF5001FA4
:103CD000C0F2C3804FEA115C21EA0C510CF1FD0CDB
:103CE00041F480115FEA5C0C0CF5C07C01D340000C
:103CF00049413DA4890241EA905187028E0E0A0C87
:103D0000A45D04FB04F602FB06F6C6F14046A4FBE4
:103D10000662F60D46EA422606FB06F4A4FB0123E2
:103D20005242C3F1404338BF5B1EA6FB024200244F
:103D3000E6FB0324D20B42EA4446A6FB0623A1FB82
:103D400002E2A3FB07E4A4184FF0000252F10002C4
:103D5000E3FB01426442C2F1404E38BFAEF1010EB6
:103D6000A6FB04234FF00002E6FB0E32A2FB034643
:103D70004FF00004B61954F10004E2FB0264A1FB09
:103D800006E6A4FB07E816EB08064FF0000858F11A
:103D90000008E4FB01687642C8F1405838BFA8F13A
:103DA0000108A2FB06E4A3FB08E52D194FF000046F
:103DB00054F10004E2FB0854A1FB05E6A7FB04E86C
:103DC00018EB06084FF0000656F10006E1FB0486EA
:103DD00018F1200556F10006A809A8F11B08B10941
:103DE00008F03F08B8F10A0F40EA86601CD901EBE1
:103DF0000C51BDE8F08100BFFCF5EEE8E2DDD8D360
:103E0000CFCBC7C3C0BDB9B6B4B1AEACA9A7A5A34B
:103E1000A19F9D9B9A9896959392908F8D8C8B895C
:103E20008887868584838281A0FB006800FB01F27D
:103E300008EB4208B8EB872807D5341858EB010483
:103E4000D5D5401C51F10001D1E7341A78EB0104BB
:103E5000CDD4401E71F10001C9E75FEA4C0C5FEA66
:103E60009C5C0DD105D34FF0000001F00041BDE88E
:103E7000F081BDE8F04170B5FFF78EFE6DDBFFBE4F
:103E8000BDE8F0414FF00000004970470000F87FA6
:103E900010B591EA030F48BF83F000433FF572ABC2
:103EA000841A71EB030C07D212198CF0004C43EB0F
:103EB0000C03001B61EB0C01DFF8A4E14FEA115485
:103EC000A4EB135C1EEA430F18BF9EEA445F00F0A8
:103ED000B08023EA6E03524221EA0451C3EB6E0321
:103EE00038BF5B1EDCF1200E25D322FA0CFE10EB4E
:103EF0000E0043FA0CFE41EB0E01CCF1200E03FA4A
:103F00000EFE10EB0E0051F10001CCF1200E29D471
:103F100012FA0EF201EB0451BDE8104058BF704791
:103F2000401C1CBFB2F1004F704700280CBF491C59
:103F300020F00100704712EB020E43EB030218BFA2
:103F40004FF0010E4EEA4202ACF1200CDCF11E0EE5
:103F500054D943FA0CFE10EB0E0051F1FF31CCF1B5
:103F60001E0ED5D50EF1010E12FA0EFE404141EBA8
:103F7000010101EB445C5FEA5C5C10D910EBDE7080
:103F800001EB045138BFBEF1004FBDE8104018BF2F
:103F9000704700280CBF491C20F00100704730D248
:103FA0004FEAD42C11F5001124F400641BD0B1FAAF
:103FB00081F20B3AA41AA41ED2F12003914030FAE8
:103FC00003F31943904001EBCC71002C01EB045139
:103FD000BDE81040A8BF704701F1C0414FF000009C
:103FE00001F000417047B0FA80F310FA03F100D1FC
:103FF00010BDE41A173C4805C90AE4E701EB045177
:1040000010BD491001EB0451BDE810404FEA3000EB
:1040100002E04FF0000170474A0008BF0042F8D0AC
:10402000B2F5001F28BF704701F000414FF00000BB
:1040300070479EEA445F07D011EA5E0FBDE810406A
:1040400004BF002100207047BDE8104070B5FFF7A5
:10405000A3FD00BF40DFF63E83F0004110467047ED
:104060000000E0FF43004FEAD30C4FEA3C0C434012
:104070001FBF40070CF1605113F0FE4F70471CF05A
:10408000006F03D100200CF0004170470CF000439A
:1040900043EA507010B540EACC0000F0CCF900BF04
:1040A000000000924FEA0001FFF7C4BD4FF000414D
:1040B0004FF00000A1F500217047000090EA010FC9
:1040C00048BF81F0004100F10882421A3CBF801ACB
:1040D00089184FEAD0524FF07F4C1CEA410FA2EBF7
:1040E000D15318BF9CEA026F00F03B804FF0004CA8
:1040F0004CEA00204CEA012121FA03FC10EB0C0CE5
:104100001ED202F1FF325FEA1C2040EBC25038BFE2
:1041100070471CF07F0F4FEA400C18BFBCF17F4F77
:1041200038BF7047C3F12003994008BF20F0010059
:10413000BCF17F4F38BF7047A0F1C04000F0C1B95B
:104140004FEA3C00000A40EBC25028BF1CF0FF0FB2
:104150004FEA400CE6D018BFBCF17F4F38BF704724
:10416000EAE79CEA026F05D010EA5C0F08BF00F096
:104170000040704710B500F05EF900BF64FBBE3E22
:104180004FF47F0C1CEAD0121EBF1CEAD11392EA36
:104190000C0F93EA0C0F00F0858090EA010F48BFE6
:1041A00042F4807240F4000C41F400002CF07F4196
:1041B00020F07F4000B58142A2EB03020FF2081C01
:1041C000ACEB504EC0F100009EF800E04FEA4E0EFE
:1041D00000FB0EFC38BF49004FEA2C1C02F5FA0226
:1041E0000CFB0EF34FEACE1E4FEA112C4FEAC12111
:1041F0000EEB635E42EB22420EFB0CFC4FEA1C53BB
:1042000000FB03114FEA112C4FEA01310EFB0CFCAD
:104210004FEADC4C00FB0C11C14228BF09184CEBE3
:1042200003335DF804EB10EB410143EBC250B2F5F0
:104230007C0F38BF704729D512F0F00F1CBF00F17A
:10424000C04000F0004070470081828384858687EB
:1042500088898B8C8D8E8F919293959697999A9C45
:104260009D9FA0A2A3A5A7A8AAACAEB0B2B3B5B7B4
:10427000B9BCBEC0C2C5C7C9CCCED1D4D7D9DCDF8A
:10428000E2E6E9ECF0F3F7FAFE0000004FEA400C3A
:104290000CF1807CBCF17E4F28BF7047B0F1C0406C
:1042A00000F00FB990EA010F0CEAD11348BF42F4B5
:1042B0008072624538BF634507D213F47F0F16D072
:1042C00080EA010000F00040704710B500F0B3F83C
:1042D000097EFC3E00F005B880EA010000F00040D5
:1042E000704780EA010000F0004000F0EAB812F4E4
:1042F0007F0F04BF0248704780EA010000F0E1B878
:104300000000C07F10F0004148BF4042B0FA80F387
:1043100010FA03F2C3F19D030BD051EAC35101EB34
:104320001220530638BF704700F1010008BF20F08B
:10433000010070474FF47F0C1CEAD0121EBF1CEA2C
:10434000D11392EA0C0F93EA0C0F00F0478090EA29
:10435000010F48BF42F480724FF0004C4CEA00203D
:104360004CEA012102EB0302A0FB0113A2F50002BB
:10437000002918BF43F001035B0028BF4FEA330355
:1043800042EB22425FEA132C4CEBC2502EBFBCEB37
:10439000436FB2F57C0F70474FEA036CBCF1004FDE
:1043A00008BF20F00100B2F57C0F38BF70470BD575
:1043B00082F0FF0212F5803FC8BF704700F1C04095
:1043C000D8BF00F00040704700F5000C5FEA4C0CCD
:1043D00048BF7047B0F1C04000F073B890EA010FD9
:1043E0000CEAD11348BF42F48072624538BF63457E
:1043F00004D280EA010000F00040704710B500F0E0
:104400001AF800BF8900013E00F007B800F009B8B3
:104410005FEA410C5FEA1C6C08D080EA010000F002
:1044200050B85FEA400C5FEA1C6CF6D14FF00040D8
:10443000A0F5800070470EF1020E2EF0030E5EF81C
:10444000044B244204D44FEA4102B2F17F4F11D809
:104450004FEA4003B3F17F4F0CD80ED14FEAD07C26
:10446000B2F17F4F0CEB4C0C0CF1020C08BF4CEB83
:10447000D17C04E04FF0080C01E04FEAD17C0CEB5A
:104480004C0324FA03F404F00704B4F1040C06D23C
:104490000EEB840CBDE810404CF0010C6047DFE8E7
:1044A0000CF0070802024FF00040A0F5800010BD9C
:1044B0000846420018BFD2F1807288BF00F0004069
:1044C00010BDFF2141EAD050C005704790EA010FAE
:1044D00048BF81F000413FF5F8AD421A04D882F0A0
:1044E0000042A0EB020011444FEAD0524FF07F4C43
:1044F0001CEA410FA2EBD15318BF9CEA026F4AD0CD
:104500004FF0004C4CEA00204CEA012121FA03FC58
:10451000B0EB0C0C0FD412F0FE0F36D05FEA4C005B
:104520001DD5001240EBC25038BF70471CF03F0F42
:1045300018BF70470BE0A2F101025FEA1C2040EBBC
:10454000C25038BF70471CF07F0F18BF7047C3F1CF
:104550002003994014BF401E20F0010070478008DE
:104560004FEA122308BF7047B0FA80FCA2EB0C029E
:10457000CCF1280C60FA0CF093EA122F04BF00EB88
:10458000C25070474FEAC3707047130A5FEADC10ED
:1045900008BF7047F6E79CEA026F04D010EA5C0F90
:1045A00008BF0020704710B5FFF745FF40DFF63E1B
:1045B00081F0004070470CF00F03092B08BF082062
:1045C00000F059800A2B0BD0082B18BF704708BF8A
:1045D0001CF0400F0AD04FF000004FF00001704770
:1045E0001CF0400F18BF4FF0004070471CF0100F38
:1045F00008D020F0704300F07F4242EAD3014FEA36
:104600004370704700F0604021F07F4242EA0002B0
:1046100001F07F4040EA727070474FF0FF0C4CF49D
:10462000E06C1CEA11531CBF9CEA030C9445C2BF0A
:10463000DA4201EB02517047002B0DD0BCF1000FA4
:104640000FD0002A01F00041A4BF41F0E04141F049
:104650007F614FF00000704701F000414FF0000013
:10466000704750EA01334FF09B0C18BF4CF0806C40
:104670007FF428A870471CF4801F11D01CF4E02F91
:1046800003D06FEACC31490070474FF04050EFF350
:10469000008222F0704242EA000282F300887047F2
:1046A0004FF00000704701020203040506070809E5
:1046B0000A0B0C0D0E0F101000000000000000008F
:1046C0000102030406070809000000000000F03F93
:1046D000000000000000F83F0000000000000000A3
:1046E0000000004003B8E23F0000000000000000AE
:1046F00006D0CF43EBFD4C3E033333333333E33F3C
:10470000FFAB6FDBB66DDB3F4D268F515555D53F67
:1047100001411DA96074D13F65DBC9934A86CD3F35
:10472000EF4E454A287ECA3F3E5555555555C53F23
:1047300093BDBE166CC166BF2CDE25AF6A56113F15
:10474000F16BD2C541BDBBBED0A4BE726937663E17
:104750000000000000000000784700080000002072
:104760004000000028010008B84700084000002071
:10477000F0070000440100080000000000000000F5
:104780000100000010000000000000000024F40000
:104790000000000000000000000000000000000019
:1047A0000000000000000000000000000000000009
:0847B000000000000000000001
:04000005080000ED02
:00000001FF
